:020000040800F2
:10000000200500200101000895040008890200086D
:10001000910400086D010008970900080000000025
:100020000000000000000000000000006D06000855
:1000300071010008000000000905000871070008B0
:100040001701000817010008170100081701000830
:100050001701000817010008170100081701000820
:100060001701000817010008170100081701000810
:100070001701000817010008170100081701000800
:1000800017010008170100081701000817010008F0
:1000900017010008170100081701000817010008E0
:1000A00017010008170100081701000817010008D0
:1000B00017010008170100081701000817010008C0
:1000C00017010008170100081701000817010008B0
:1000D000170100087507000817010008170100083C
:1000E000170100081701000817010008DFF80CD0FD
:1000F00000F02AF800480047F10C00082005002015
:1001000005480047FEE7FEE7FEE7FEE7FEE7FEE7FD
:10011000FEE7FEE7FEE7FEE7ED00000830B50B4620
:10012000014600202022012409E021FA02F59D4227
:1001300005D303FA02F5491B04FA02F52844151EFB
:10014000A2F10102F1DC30BD064C074D06E0E0688B
:1001500040F0010394E8070098471034AC42F6D30E
:10016000FFF7C8FF1C1100083C11000800BFFEE7A4
:1001700070472DE9F04102460025002600200023AB
:100180000024002791F803C00CF00F0591F803C07C
:100190000CF0100CBCF1000F03D091F802C04CEA37
:1001A000050591F800C0BCF1000F31D014680020A3
:1001B0002BE04FF0010C0CFA00F3B1F800C00CEA90
:1001C00003069E4220D183004FF00F0C0CFA03F778
:1001D000BC4305FA03FC4CEA040491F803C0BCF1EB
:1001E000280F06D14FF0010C0CFA00FCC2F814C025
:1001F0000AE091F803C0BCF1480F05D14FF0010CA3
:100200000CFA00FCC2F810C0401C0828D1D31460BE
:10021000B1F800C0BCF1FF0F34DD546800202EE0BF
:1002200000F1080C4FF0010808FA0CF3B1F800C017
:100230000CEA03069E4221D183004FF00F0C0CFA0A
:1002400003F7BC4305FA03FC4CEA040491F803C02D
:10025000BCF1280F05D100F1080C08FA0CF8C2F81F
:10026000148091F803C0BCF1480F07D100F1080CCD
:100270004FF0010808FA0CF8C2F81080401C08285A
:10028000CED35460BDE8F08100BFFEE770B5002416
:100290000025002600201E4908601E48006820F046
:1002A00070401C4908600846006840F00040086043
:1002B000042000F05FFC00BF18E001201449086032
:1002C000032000F057FC00261348D0F81C0108B1A9
:1002D000012600E0002646EA4400C4B200200C4992
:1002E0000860032000F046FC681CC5B2082DE4DB62
:1002F0000848006820F07040064908600846006819
:1003000040F0004008600A2000F034FC204670BD38
:1003100098812142000C01400080214210B5134811
:10032000006820F07040114908600846006840F0FD
:100330004050086001200E490860042000F01AFCBB
:1003400001200C49C1F89C01042000F013FC00209E
:100350000749091D0860042000F00CFC0020054935
:10036000C1F89801042000F005FC10BD000C01400C
:10037000988121420080214210B50F48006820F08A
:1003800070400D4908600846006840F04050086021
:1003900000200A490860042000F0ECFB0120084915
:1003A000C1F89801042000F0E5FB01200349086032
:1003B000042000F0DFFB10BD000C01409C812142B5
:1003C0000080214270B504461F48006820F070404C
:1003D0001D4908600846006840F04050086000254C
:1003E0001BE0002019490860052000F0C3FB04F061
:1003F000800020B101201549091D086003E000209C
:100400001249091D0860012010490860052000F00C
:10041000B1FB6006040E681CC5B2082DE1DB0020AC
:100420000A490860042000F0CBFB0748006820F070
:100430007040054908600846006840F000400860C8
:10044000042000F0BDFB70BD000C014098812142EA
:1004500008B50121082000F059F8C020ADF80000CF
:1004600010208DF8030003208DF80200694605482E
:10047000FFF77FFE0120044908600449C1F89C0190
:1004800008BD0000000C01409881214200802142FB
:1004900000BFFEE77047000070B5002100230F2267
:1004A000C47804B3154C246804F4E064C4F5E06433
:1004B000210AC1F10403CA40447804FA03F18478A4
:1004C0001440214309010E4C0678A155047804F02C
:1004D0001F050124AC4005786D11AD0005F1E02544
:1004E000C5F8004109E0047804F01F050124AC4080
:1004F000044D0678761145F8264070BD0CED00E0FD
:1005000000E400E080E100E07047000029B1064A05
:1005100092690243044B9A6104E0034A9269824360
:10052000014B9A61704700000010024030B5002175
:100530000022002400232D4D6D6805F00C0121B12F
:10054000042905D0082923D105E0294D056022E0C2
:10055000274D05601FE0254D6D6805F47012234D91
:100560006D6805F48034022505EB92421CB9214DDB
:10057000554305600BE01D4D6D6805F400351DB158
:100580001C4D5543056002E0194D5543056002E0DE
:10059000174D056000BF00BF144D6D6805F0F001F8
:1005A0000909154D6B5C0568DD4045600F4D6D68B0
:1005B00005F4E061090A104D6B5C4568DD4085601B
:1005C0000A4D6D6805F46051C90A0B4D6B5C4568B6
:1005D000DD40C560054D6D6805F44041890B074D50
:1005E0006B5CC568B5FBF3F5056130BD00100240DA
:1005F00000127A0000093D001400002024000020B1
:1006000070B50025002400201549086015480068D1
:1006100020F07040134908600846006840F0004030
:100620000860042000F0CCFA01200F49C1F89801BD
:10063000042000F0C5FA01E0601CC4B208487C3810
:10064000006808B1642CF7DB00200549086004202D
:1006500000F0B6FA642C00DA0125284670BD0000CF
:1006600098812142000C0140008021427047000027
:1006700010B51648006820F070401449086008461C
:10068000006840F0405008600020114908600420D4
:1006900000F096FA01200F49C1F89C01042000F0F7
:1006A0008FFA01200A490860042000F089FA00202E
:1006B0000849C1F89801042000F082FA002004499A
:1006C000091D0860042000F07BFA10BD000C0140F9
:1006D000988121420080214210B51848006820F01E
:1006E0007040164908600846006840F040500860B5
:1006F000002013490860042000F062FA002011492C
:10070000C1F89C01042000F05BFA01200C4908604C
:10071000042000F055FA00200A49C1F8980104208D
:1007200000F04EFA0548006820F070400349086068
:100730000846006840F00040086010BD000C014011
:100740009881214200802142042808D14FF0E02105
:10075000096941F004014FF0E022116107E04FF018
:10076000E021096921F004014FF0E0221161704796
:100770007047000010B540F225511D4800F04AF8BE
:1007800010B31B4800F002F9C4B21A48008800F404
:100790000040C8B91748008800F4804060B10A2CB6
:1007A00003D000201349088020E01248008840F45C
:1007B00000401049088019E00D2C06D10D48008832
:1007C00040F480400B49088010E00A480088C0F3DC
:1007D0000D0009490C5407480088401C0549088051
:1007E00008460088C72801DD0020088010BD0000F1
:1007F00000380140500000205400002021B18289BF
:1008000042F40052828104E082894DF6FF731A405F
:100810008281704770B50246002400230025002025
:1008200040F66A16B14200D100BFC1F3421501F093
:100830001F03012606FA03F3012D02D196893340E6
:1008400006E0022D02D1168A334001E0968A334039
:100850000C12012606FA04F41688344013B10CB1C8
:10086000012000E0002070BDF0B503460024002602
:100870000025002040F66A17B94200D100BF184693
:10088000C1F3421401F01F06012707FA06F5012CF7
:1008900001D10C3004E0022C01D1103000E0143002
:1008A0001AB107682F43076002E00768AF4307608B
:1008B000F0BD00002DE9F04786B005460E46002445
:1008C000A24600BFA1460027B08900B100BF2F4655
:1008D0002C8A4CF6FF700440F08804432C82AC89CB
:1008E0004EF6F3100440B0883189084371890843FB
:1008F0000443AC81AC8A4FF6FF400440B089044306
:10090000AC8201A8FFF712FE1F48874202D1DDF832
:1009100010A001E0DDF80CA0A88900F4004040B16F
:100920000AEBCA0000EB0A1031684900B0FBF1F88D
:1009300007E00AEBCA0000EB0A1031688900B0FB3F
:10094000F1F86420B8FBF0F004012009642101FBF8
:100950001089A88900F4004040B1322000EBC900A2
:10096000B0FBF1F000F00700044308E0322000EB98
:1009700009106421B0FBF1F000F00F0004432C815A
:1009800006B0BDE8F08700000038014001468888C5
:10099000C0F30800704700BFFEE700000FB4054B2E
:1009A00010B503A9044A029800F018F810BC5DF8CD
:1009B00014FB00000D0C00084C00002002E008C8E9
:1009C000121F08C1002AFAD170477047002001E0C9
:1009D00001C1121F002AFBD1704700002DE9FF4F13
:1009E00089B09B460446002506E025280BD05A46D0
:1009F0000B999047641C6D1C20780028F5D10DB030
:100A00002846BDE8F08F0027B8460122474900E09C
:100A1000074314F8013F203B02FA03F00842F7D1E4
:100A200020782E2819D114F8010F47F004072A283E
:100A30000ED06FF02F022078A0F1300109290CD8D8
:100A400008EB880102EB410100EB0108641CF2E7AE
:100A50000A98641C50F8048B0A9020780028CED0A5
:100A6000642808D0692806D075281ED05A460B99EC
:100A700090476D1C58E00A994FF00A0901C90A9184
:100A8000002802DA40422D2102E0390504D52B214D
:100A90008DF82010012103E0F90704D02021F7E7A9
:100AA0008A4608AE0DE00021FAE70A994FF00A09DC
:100AB00001C90A91F7E74946FFF730FB303106F8E4
:100AC000011D0028F7D1ADEB060000F120097807E1
:100AD00001D44FF00108C84502DDA8EB090000E091
:100AE00000208046002706E008A85A46C05D0B9902
:100AF00090476D1C7F1C5745F6DB04E030205A46BA
:100B00000B9990476D1CB8F10001A8F10108F5DCC4
:100B100005E016F8010B5A460B9990476D1CB9F188
:100B20000001A9F10109F4DC641C65E70928010052
:100B300010B56FF00400FFF707FE0A4800680A4985
:100B4000B0FBF1F0094908700846007800EB40015D
:100B5000C1EBC0104FF6FF7101EAC00004490880E4
:100B600010BD00000000002000127A0046000020A6
:100B7000480000200146114A12884A434FF0E02302
:100B80005A6100229A611A46126942F001021A6102
:100B900000BF4FF0E022106900F001021AB100F42A
:100BA0008032002AF5D04FF0E022126922F00102D3
:100BB0004FF0E0231A6100229A617047480000203C
:100BC0000146114A12784A434FF0E0235A6100224D
:100BD0009A611A46126942F001021A6100BF4FF091
:100BE000E022106900F001021AB100F48032002AFC
:100BF000F5D04FF0E022126922F001024FF0E0231D
:100C00001A6100229A6170474600002000BF054A21
:100C1000128802F04002002AF9D0C2B2014B1B1D1B
:100C20001A8070470038014010B5FFF777FB70203D
:100C3000FFF7C8FBFFF7E4FC20490870084600787E
:100C400018B11FA0FFF7AAFE02E01EA0FFF7A6FE44
:100C5000E120FFF7B7FBFFF7D3FC184908700846FF
:100C6000007818B119A0FFF799FE02E018A0FFF76D
:100C700095FE0820FFF7A6FBFFF7C2FC0F4908709E
:100C80000846007818B114A0FFF788FE02E013A010
:100C9000FFF784FE0020FFF795FBFFF7B1FC074943
:100CA00008700846007818B10EA0FFF777FE02E042
:100CB0000DA0FFF773FEFFF75FFB10BD28000020BB
:100CC00033000000332D6E2D0000000034000000C2
:100CD000342D6E2D0000000035000000352D6E2DE6
:100CE0000000000036000000362D6E2D00000000D0
:100CF000FFF71EFF4FF4E13000F0C0F9FFF7A8FB4B
:100D000007E004A0FFF74AFE00F004F90A20FFF70D
:100D100031FFF6E7BFAACABCB2E2C1BFA3ACC7EBC2
:100D2000C9D4B5C8A3A100002DE9F041002404E016
:100D3000002067490855601CC4B2062CF8DBFFF799
:100D4000EDFA7120FFF73EFBFFF75AFC614908708E
:100D5000FFF79CFA5E490870FFF7BEFCFFF796FAB2
:100D60005B494870FFF7B8FCFFF790FA5849887064
:100D7000FFF7B2FCFFF78AFA5549C870FFF7ACFCE1
:100D8000FFF784FA52490871FFF7A6FCFFF77EFAD5
:100D90004F494871FFF76CFCFFF7EEFA4C480078BA
:100DA00000F0680008284ED1494840784A49086058
:100DB00047488078096840EA01204749086044486C
:100DC000C078096840EA0120434908600846006885
:100DD00000090860084600684FF47A714843000D26
:100DE0003D4908603A48C0783C49086008460078A8
:100DF00000F00F00086036480079096840EA0120D9
:100E00003649086032484079096840EA0120334990
:100E10000860084600684FF4FA6148438910C1EB46
:100E200010502E4908602C480088000A2C49087090
:100E300029480078487029480088000A88702748A7
:100E40000078C87008E0FF20254908704870887055
:100E5000C87024A0FFF7A2FD23A0FFF79FFD1F4845
:100E600000680A21B0FBF1F201FB12051B48006883
:100E7000B0FBF1F0B0FBF1F201FB1206174800687D
:100E80006421B0FBF1F72B463246394617A0FFF735
:100E900085FD114800680A21B0FBF1F201FB120543
:100EA0000D480068B0FBF1F0B0FBF1F201FB120657
:100EB000094800686421B0FBF1F72B4632463946F9
:100EC0000FA0FFF76BFD08A0FFF768FDBDE8F081FC
:100ED00029000020280000203000002034000020DD
:100EE000380000206C7979000D0A0000B5B1C7B058
:100EF000CEC2B6C8CEAA3A256425642E2564000069
:100F0000B5B1C7B0CAAAB6C8CEAA3A256425642E20
:100F10002564000010B50A20FFF72CFE00F014F83D
:100F20000A20FFF727FEFFF77FFE0A20FFF722FEC9
:100F300000F040F85020FFF71DFEFFF7F5FE0520FA
:100F4000FFF718FE10BD000010B5FFF7E7F970209D
:100F5000FFF738FAFFF754FB0F490870084600788E
:100F600018B10EA0FFF71AFD02E00DA0FFF716FD65
:100F7000BA20FFF727FAFFF743FB07490870084636
:100F8000007818B108A0FFF709FD02E007A0FFF7FD
:100F900005FDFFF7F1F910BD280000203100000029
:100FA000312D6E2D0000000032000000322D6E2D1C
:100FB0000000000010B5FFF7B1F97020FFF702FA4A
:100FC000FFF71EFB204908700846007818B11FA0E3
:100FD000FFF7E4FC02E01EA0FFF7E0FCAC20FFF707
:100FE000F1F9FFF70DFB184908700846007818B1B1
:100FF00019A0FFF7D3FC02E018A0FFF7CFFC3320C5
:10100000FFF7E0F9FFF7FCFA0F490870084600788F
:1010100018B114A0FFF7C2FC02E013A0FFF7BEFC5A
:101020000020FFF7CFF9FFF7EBFA074908700846F1
:10103000007818B10EA0FFF7B1FC02E00DA0FFF799
:10104000ADFCFFF799F910BD280000203700000023
:10105000372D6E2D0000000038000000382D6E2D59
:101060000000000039000000392D6E2D0000000046
:101070003130000031302D6E2D00000010B586B0EB
:101080000446012144F20400FFF740FA4FF40070D7
:10109000ADF8140003208DF8160018208DF8170005
:1010A00005A91C48FFF765F84FF48060ADF81400FF
:1010B00004208DF8170005A91648FFF75AF82520D7
:1010C0008DF8000003208DF801008DF8020001204A
:1010D0008DF803006846FFF7DFF901940020ADF8B2
:1010E0000800ADF80A00ADF80C00ADF810000C20B7
:1010F000ADF80E0001A90848FFF7DCFB012240F221
:1011000025510548FFF7B0FB01210348FFF776FBA7
:1011100006B010BD00080140003801403C11000835
:101120000000002054000000BC09000890110008D5
:1011300054000020CC040000CC09000800A24A049E
:101140000000000000000000010203040607080977
:10115000000000000102030401020304060708095D
:10116000020406080000000000000000000000006B
:101170000000000000000000FA060A000000000065
:1011800000FF000000000000000000000000000060
:04000005080000ED02
:00000001FF
